{
  "_format": "hh-sol-artifact-1",
  "contractName": "Wallet",
  "sourceName": "contracts/Wallet.sol",
  "abi": [
    {
      "inputs": [],
      "name": "getBalance",
      "outputs": [
        {
          "internalType": "uint256",
          "name": "",
          "type": "uint256"
        }
      ],
      "stateMutability": "view",
      "type": "function"
    },
    {
      "inputs": [
        {
          "internalType": "uint256",
          "name": "amount",
          "type": "uint256"
        }
      ],
      "name": "withdraw",
      "outputs": [],
      "stateMutability": "nonpayable",
      "type": "function"
    }
  ],
  "bytecode": "0x608060405234801561001057600080fd5b506104f3806100206000396000f3fe608060405234801561001057600080fd5b50600436106100365760003560e01c806312065fe01461003b5780632e1a7d4d14610059575b600080fd5b610043610075565b604051610050919061040d565b60405180910390f35b610073600480360381019061006e9190610315565b61014c565b005b60008060003373ffffffffffffffffffffffffffffffffffffffff1673ffffffffffffffffffffffffffffffffffffffff16815260200190815260200160002060010160009054906101000a900460ff16610105576040517f08c379a00000000000000000000000000000000000000000000000000000000081526004016100fc906103ed565b60405180910390fd5b6000803373ffffffffffffffffffffffffffffffffffffffff1673ffffffffffffffffffffffffffffffffffffffff16815260200190815260200160002060000154905090565b6000803373ffffffffffffffffffffffffffffffffffffffff1673ffffffffffffffffffffffffffffffffffffffff16815260200190815260200160002060010160009054906101000a900460ff166101da576040517f08c379a00000000000000000000000000000000000000000000000000000000081526004016101d1906103ed565b60405180910390fd5b6000803373ffffffffffffffffffffffffffffffffffffffff1673ffffffffffffffffffffffffffffffffffffffff1681526020019081526020016000206000015481111561025e576040517f08c379a0000000000000000000000000000000000000000000000000000000008152600401610255906103cd565b60405180910390fd5b806000803373ffffffffffffffffffffffffffffffffffffffff1673ffffffffffffffffffffffffffffffffffffffff16815260200190815260200160002060000160008282546102af9190610439565b925050819055503373ffffffffffffffffffffffffffffffffffffffff166108fc829081150290604051600060405180830381858888f193505050501580156102fc573d6000803e3d6000fd5b5050565b60008135905061030f816104a6565b92915050565b60006020828403121561032757600080fd5b600061033584828501610300565b91505092915050565b600061034b601483610428565b91507f496e73756666696369656e742062616c616e63650000000000000000000000006000830152602082019050919050565b600061038b601383610428565b91507f5573657220646f6573206e6f74206578697374000000000000000000000000006000830152602082019050919050565b6103c78161046d565b82525050565b600060208201905081810360008301526103e68161033e565b9050919050565b600060208201905081810360008301526104068161037e565b9050919050565b600060208201905061042260008301846103be565b92915050565b600082825260208201905092915050565b60006104448261046d565b915061044f8361046d565b92508282101561046257610461610477565b5b828203905092915050565b6000819050919050565b7f4e487b7100000000000000000000000000000000000000000000000000000000600052601160045260246000fd5b6104af8161046d565b81146104ba57600080fd5b5056fea26469706673582212204a01310b37b76f85b46e1df0eca7e7b8423460475b069cbc855ab70726ab635964736f6c63430008000033",
  "linkReferences": {},
  "deployedLinkReferences": {}
}